{
  "contractName": "Newspaper",
  "abi": [
    {
      "inputs": [],
      "stateMutability": "payable",
      "type": "constructor",
      "payable": true
    },
    {
      "anonymous": false,
      "inputs": [
        {
          "indexed": false,
          "internalType": "address",
          "name": "buyer",
          "type": "address"
        },
        {
          "indexed": false,
          "internalType": "uint256",
          "name": "article_nr",
          "type": "uint256"
        },
        {
          "indexed": false,
          "internalType": "uint256",
          "name": "order_nr",
          "type": "uint256"
        },
        {
          "indexed": false,
          "internalType": "address",
          "name": "redactor",
          "type": "address"
        }
      ],
      "name": "ArticlePublished",
      "type": "event"
    },
    {
      "anonymous": false,
      "inputs": [
        {
          "indexed": false,
          "internalType": "address",
          "name": "buyer",
          "type": "address"
        },
        {
          "indexed": false,
          "internalType": "uint256",
          "name": "text_length",
          "type": "uint256"
        }
      ],
      "name": "OrderSent",
      "type": "event"
    },
    {
      "anonymous": false,
      "inputs": [
        {
          "indexed": false,
          "internalType": "address",
          "name": "buyer",
          "type": "address"
        },
        {
          "indexed": false,
          "internalType": "uint256",
          "name": "order_nr",
          "type": "uint256"
        },
        {
          "indexed": false,
          "internalType": "uint256",
          "name": "value",
          "type": "uint256"
        }
      ],
      "name": "PaymentSent",
      "type": "event"
    },
    {
      "anonymous": false,
      "inputs": [
        {
          "indexed": false,
          "internalType": "address",
          "name": "buyer",
          "type": "address"
        },
        {
          "indexed": false,
          "internalType": "uint256",
          "name": "order_nr",
          "type": "uint256"
        },
        {
          "indexed": false,
          "internalType": "uint256",
          "name": "price",
          "type": "uint256"
        }
      ],
      "name": "PriceSent",
      "type": "event"
    },
    {
      "inputs": [
        {
          "internalType": "bytes32",
          "name": "name",
          "type": "bytes32"
        },
        {
          "internalType": "uint256",
          "name": "text_length",
          "type": "uint256"
        }
      ],
      "name": "SendOrder",
      "outputs": [],
      "stateMutability": "nonpayable",
      "type": "function"
    },
    {
      "inputs": [
        {
          "internalType": "uint256",
          "name": "order_nr",
          "type": "uint256"
        },
        {
          "internalType": "string",
          "name": "text",
          "type": "string"
        }
      ],
      "name": "SendPayment",
      "outputs": [],
      "stateMutability": "payable",
      "type": "function",
      "payable": true
    },
    {
      "inputs": [
        {
          "internalType": "uint256",
          "name": "order_nr",
          "type": "uint256"
        },
        {
          "internalType": "string",
          "name": "text",
          "type": "string"
        }
      ],
      "name": "PublishArticle",
      "outputs": [],
      "stateMutability": "nonpayable",
      "type": "function"
    },
    {
      "inputs": [
        {
          "internalType": "uint256",
          "name": "article_nr",
          "type": "uint256"
        }
      ],
      "name": "QueryArticle",
      "outputs": [
        {
          "internalType": "address",
          "name": "",
          "type": "address"
        },
        {
          "internalType": "string",
          "name": "",
          "type": "string"
        },
        {
          "internalType": "uint256",
          "name": "",
          "type": "uint256"
        }
      ],
      "stateMutability": "view",
      "type": "function",
      "constant": true
    },
    {
      "inputs": [
        {
          "internalType": "address",
          "name": "author_address",
          "type": "address"
        }
      ],
      "name": "QueryAuthor",
      "outputs": [
        {
          "internalType": "address",
          "name": "",
          "type": "address"
        },
        {
          "internalType": "bytes32",
          "name": "",
          "type": "bytes32"
        }
      ],
      "stateMutability": "view",
      "type": "function",
      "constant": true
    }
  ],
  "bytecode": "0x608060405273c11eceeba1bf3868c21a52e2053f333d082da378600160006101000a81548173ffffffffffffffffffffffffffffffffffffffff021916908373ffffffffffffffffffffffffffffffffffffffff16021790555060006002556000600355336000806101000a81548173ffffffffffffffffffffffffffffffffffffffff021916908373ffffffffffffffffffffffffffffffffffffffff1602179055506111c7806100b26000396000f3fe60806040526004361061004a5760003560e01c80634cbef7151461004f578063a8011cfc1461008d578063d822f242146100b6578063ea48dc8e146100f5578063ebbd73501461011e575b600080fd5b34801561005b57600080fd5b5061007660048036038101906100719190610a72565b61013a565b604051610084929190610ac7565b60405180910390f35b34801561009957600080fd5b506100b460048036038101906100af9190610c6c565b6101ff565b005b3480156100c257600080fd5b506100dd60048036038101906100d89190610cc8565b610406565b6040516100ec93929190610d8c565b60405180910390f35b34801561010157600080fd5b5061011c60048036038101906101179190610df6565b61053c565b005b61013860048036038101906101339190610c6c565b6106ff565b005b6000806000600460008573ffffffffffffffffffffffffffffffffffffffff1673ffffffffffffffffffffffffffffffffffffffff1681526020019081526020016000206040518060400160405290816000820160009054906101000a900473ffffffffffffffffffffffffffffffffffffffff1673ffffffffffffffffffffffffffffffffffffffff1673ffffffffffffffffffffffffffffffffffffffff1681526020016001820154815250509050806000015181602001519250925050915091565b60405180606001604052806005600085815260200190815260200160002060000160009054906101000a900473ffffffffffffffffffffffffffffffffffffffff1673ffffffffffffffffffffffffffffffffffffffff1681526020018281526020018381525060066000600354815260200190815260200160002060008201518160000160006101000a81548173ffffffffffffffffffffffffffffffffffffffff021916908373ffffffffffffffffffffffffffffffffffffffff16021790555060208201518160010190805190602001906102de92919061095d565b50604082015181600201559050507f395e8c7993adee507afd11c60cb94e1f22d7cff436a60366e576642c052320046005600084815260200190815260200160002060000160009054906101000a900473ffffffffffffffffffffffffffffffffffffffff1660035484600160009054906101000a900473ffffffffffffffffffffffffffffffffffffffff1660405161037b9493929190610e95565b60405180910390a1600160009054906101000a900473ffffffffffffffffffffffffffffffffffffffff1673ffffffffffffffffffffffffffffffffffffffff166108fc60056000858152602001908152602001600020600201549081150290604051600060405180830381858888f19350505050158015610401573d6000803e3d6000fd5b505050565b60006060600080600660008681526020019081526020016000206040518060600160405290816000820160009054906101000a900473ffffffffffffffffffffffffffffffffffffffff1673ffffffffffffffffffffffffffffffffffffffff1673ffffffffffffffffffffffffffffffffffffffff16815260200160018201805461049190610f09565b80601f01602080910402602001604051908101604052809291908181526020018280546104bd90610f09565b801561050a5780601f106104df5761010080835404028352916020019161050a565b820191906000526020600020905b8154815290600101906020018083116104ed57829003601f168201915b505050505081526020016002820154815250509050806000015181602001518260400151935093509350509193909250565b60405180604001604052803373ffffffffffffffffffffffffffffffffffffffff16815260200183815250600460003373ffffffffffffffffffffffffffffffffffffffff1673ffffffffffffffffffffffffffffffffffffffff16815260200190815260200160002060008201518160000160006101000a81548173ffffffffffffffffffffffffffffffffffffffff021916908373ffffffffffffffffffffffffffffffffffffffff1602179055506020820151816001015590505060405180606001604052803373ffffffffffffffffffffffffffffffffffffffff168152602001828152602001600081525060056000600254815260200190815260200160002060008201518160000160006101000a81548173ffffffffffffffffffffffffffffffffffffffff021916908373ffffffffffffffffffffffffffffffffffffffff16021790555060208201518160010155604082015181600201559050507fda34482470b6ed053ff8260fc9e16711f722d1427833e5b5acd411eef70cadef33826040516106d0929190610f3b565b60405180910390a16106e360025461085d565b600260008154809291906106f690610f93565b91905055505050565b3373ffffffffffffffffffffffffffffffffffffffff166005600084815260200190815260200160002060000160009054906101000a900473ffffffffffffffffffffffffffffffffffffffff1673ffffffffffffffffffffffffffffffffffffffff16146107a3576040517f08c379a000000000000000000000000000000000000000000000000000000000815260040161079a9061104e565b60405180910390fd5b60056000838152602001908152602001600020600201543410156107fc576040517f08c379a00000000000000000000000000000000000000000000000000000000081526004016107f3906110e0565b60405180910390fd5b7f07d56d06d59e708b4db4f68fd102036f1f8441c3f1ce450e350c21fed38d028733833460405161082f93929190611100565b60405180910390a161084182826101ff565b6003600081548092919061085490610f93565b91905055505050565b6000600560008381526020019081526020016000206040518060600160405290816000820160009054906101000a900473ffffffffffffffffffffffffffffffffffffffff1673ffffffffffffffffffffffffffffffffffffffff1673ffffffffffffffffffffffffffffffffffffffff1681526020016001820154815260200160028201548152505090506000600282602001516108fc9190611137565b90508060056000858152602001908152602001600020600201819055507f60d45b75a21e219fa57f0168f27b2d5a6a5ebd022df5c262f6fe65338692fd8a8260000151848360405161095093929190611100565b60405180910390a1505050565b82805461096990610f09565b90600052602060002090601f01602090048101928261098b57600085556109d2565b82601f106109a457805160ff19168380011785556109d2565b828001600101855582156109d2579182015b828111156109d15782518255916020019190600101906109b6565b5b5090506109df91906109e3565b5090565b5b808211156109fc5760008160009055506001016109e4565b5090565b6000604051905090565b600080fd5b600080fd5b600073ffffffffffffffffffffffffffffffffffffffff82169050919050565b6000610a3f82610a14565b9050919050565b610a4f81610a34565b8114610a5a57600080fd5b50565b600081359050610a6c81610a46565b92915050565b600060208284031215610a8857610a87610a0a565b5b6000610a9684828501610a5d565b91505092915050565b610aa881610a34565b82525050565b6000819050919050565b610ac181610aae565b82525050565b6000604082019050610adc6000830185610a9f565b610ae96020830184610ab8565b9392505050565b6000819050919050565b610b0381610af0565b8114610b0e57600080fd5b50565b600081359050610b2081610afa565b92915050565b600080fd5b600080fd5b6000601f19601f8301169050919050565b7f4e487b7100000000000000000000000000000000000000000000000000000000600052604160045260246000fd5b610b7982610b30565b810181811067ffffffffffffffff82111715610b9857610b97610b41565b5b80604052505050565b6000610bab610a00565b9050610bb78282610b70565b919050565b600067ffffffffffffffff821115610bd757610bd6610b41565b5b610be082610b30565b9050602081019050919050565b82818337600083830152505050565b6000610c0f610c0a84610bbc565b610ba1565b905082815260208101848484011115610c2b57610c2a610b2b565b5b610c36848285610bed565b509392505050565b600082601f830112610c5357610c52610b26565b5b8135610c63848260208601610bfc565b91505092915050565b60008060408385031215610c8357610c82610a0a565b5b6000610c9185828601610b11565b925050602083013567ffffffffffffffff811115610cb257610cb1610a0f565b5b610cbe85828601610c3e565b9150509250929050565b600060208284031215610cde57610cdd610a0a565b5b6000610cec84828501610b11565b91505092915050565b600081519050919050565b600082825260208201905092915050565b60005b83811015610d2f578082015181840152602081019050610d14565b83811115610d3e576000848401525b50505050565b6000610d4f82610cf5565b610d598185610d00565b9350610d69818560208601610d11565b610d7281610b30565b840191505092915050565b610d8681610af0565b82525050565b6000606082019050610da16000830186610a9f565b8181036020830152610db38185610d44565b9050610dc26040830184610d7d565b949350505050565b610dd381610aae565b8114610dde57600080fd5b50565b600081359050610df081610dca565b92915050565b60008060408385031215610e0d57610e0c610a0a565b5b6000610e1b85828601610de1565b9250506020610e2c85828601610b11565b9150509250929050565b6000819050919050565b6000610e5b610e56610e5184610a14565b610e36565b610a14565b9050919050565b6000610e6d82610e40565b9050919050565b6000610e7f82610e62565b9050919050565b610e8f81610e74565b82525050565b6000608082019050610eaa6000830187610a9f565b610eb76020830186610d7d565b610ec46040830185610d7d565b610ed16060830184610e86565b95945050505050565b7f4e487b7100000000000000000000000000000000000000000000000000000000600052602260045260246000fd5b60006002820490506001821680610f2157607f821691505b60208210811415610f3557610f34610eda565b5b50919050565b6000604082019050610f506000830185610a9f565b610f5d6020830184610d7d565b9392505050565b7f4e487b7100000000000000000000000000000000000000000000000000000000600052601160045260246000fd5b6000610f9e82610af0565b91507fffffffffffffffffffffffffffffffffffffffffffffffffffffffffffffffff821415610fd157610fd0610f64565b5b600182019050919050565b7f5468652073656e64657220616e6420746865206f7264657220617574686f722060008201527f61646472657373657320617265206e6f74207468652073616d65000000000000602082015250565b6000611038603a83610d00565b915061104382610fdc565b604082019050919050565b600060208201905081810360008301526110678161102b565b9050919050565b7f5468652070617961626c6520616d6d6f756e74206973206e6f7420626967206560008201527f6e6f756768000000000000000000000000000000000000000000000000000000602082015250565b60006110ca602583610d00565b91506110d58261106e565b604082019050919050565b600060208201905081810360008301526110f9816110bd565b9050919050565b60006060820190506111156000830186610a9f565b6111226020830185610d7d565b61112f6040830184610d7d565b949350505050565b600061114282610af0565b915061114d83610af0565b9250817fffffffffffffffffffffffffffffffffffffffffffffffffffffffffffffffff048311821515161561118657611185610f64565b5b82820290509291505056fea2646970667358221220a51e50c7e1186be11caefec4f28712a9ed2c775bdd4f81f97145c605c593e9cf64736f6c634300080a0033",
  "immutableReferences": {},
  "source": "// SPDX-License-Identifier: MIT\npragma solidity >=0.4.22 <0.9.0;\n\ncontract Newspaper {\n\n    address payable newsletter;\n\n    //this should be dynamic, but it's static for demonstation purposes\n    address payable redactor = payable(0xc11eceEbA1BF3868C21A52E2053f333D082da378);\n\n    uint order_seqence = 0;\n    uint article_sequence = 0;\n\n    struct Author {\n        address author_address;\n        bytes32 author_name;\n    }\n\n    struct Order {\n        address author_address;\n        uint text_length;\n        uint price;\n    }\n\n    struct Article {\n        address article_author_address;\n        string article_text;\n        uint order_number;\n    }\n\n    // author dictionary\n    mapping (address => Author) authors;\n\n    // order dictionary\n    mapping (uint => Order) orders;\n\n    // article dictionary\n    mapping (uint => Article) articles;\n\n    // Event triggered when the person sends a posting request\n    event OrderSent(address buyer, uint text_length);\n\n    /// Event triggerd when newsfeed sends the required ammount\n    event PriceSent(address buyer, uint order_nr, uint price);\n\n    /// Event trigger when the buyer sends the ammount\n    event PaymentSent(address buyer, uint order_nr, uint value);\n\n    /// Event triggered when the newspaper publishes the article\n    event ArticlePublished(address buyer, uint article_nr, uint order_nr, address redactor);\n\n\n    constructor() payable {\n      // the instantiator is the sender\n      newsletter =  payable(msg.sender);\n    }\n\n    // function for registering the incoming orders\n    function SendOrder(bytes32 name, uint text_length) public {\n\n        authors[msg.sender] = Author(msg.sender, name);\n        orders[order_seqence] = Order(msg.sender, text_length, 0);\n        \n        emit OrderSent(msg.sender, text_length);\n        SendPrice(order_seqence);\n        order_seqence++;\n\n    }\n\n    // function for generating the price for the order and sending it back\n    function SendPrice(uint order_nr) private {\n        Order memory order = orders[order_nr];\n\n        uint price = order.text_length * 2;\n        orders[order_nr].price = price;\n        emit PriceSent(order.author_address, order_nr, price);\n    }\n\n    // function for receiving the payment together with the text\n    function SendPayment(uint order_nr, string memory text) payable public {\n        require(\n            orders[order_nr].author_address == msg.sender,\n            \"The sender and the order author addresses are not the same\");\n\n        require(\n            msg.value >= orders[order_nr].price,\n            \"The payable ammount is not big enough\"\n        );\n\n        emit PaymentSent(msg.sender, order_nr, msg.value);\n        PublishArticle(order_nr, text);\n        article_sequence++;\n    }\n\n    // function for publishing the text and paying out the redactor\n    function PublishArticle(uint order_nr, string memory text) public {\n        articles[article_sequence] = Article(orders[order_nr].author_address, text, order_nr);\n\n        emit ArticlePublished(orders[order_nr].author_address, article_sequence, order_nr, redactor);\n        redactor.transfer(orders[order_nr].price);\n    }\n\n    function QueryArticle(uint article_nr) view public returns(address, string memory, uint) {\n\n        Article memory _article = articles[article_nr];\n        return (_article.article_author_address, _article.article_text, _article.order_number);\n    }\n\n    function QueryAuthor(address author_address) view public returns(address, bytes32) {\n\n        Author memory _author = authors[author_address];\n        return (_author.author_address, _author.author_name);\n    }\n\n\n\n}",
  "sourcePath": "/Users/martynasjasinskas/Desktop/VU_block_chain_ether/contracts/Newspaper.sol",
  "compiler": {
    "name": "solc",
    "version": "0.8.10+commit.fc410830.Emscripten.clang"
  },
  "schemaVersion": "3.4.3",
  "updatedAt": "2021-12-05T18:59:13.685Z",
  "networkType": "ethereum",
  "devdoc": {
    "kind": "dev",
    "methods": {},
    "version": 1
  },
  "userdoc": {
    "events": {
      "ArticlePublished(address,uint256,uint256,address)": {
        "notice": "Event triggered when the newspaper publishes the article"
      },
      "PaymentSent(address,uint256,uint256)": {
        "notice": "Event trigger when the buyer sends the ammount"
      },
      "PriceSent(address,uint256,uint256)": {
        "notice": "Event triggerd when newsfeed sends the required ammount"
      }
    },
    "kind": "user",
    "methods": {},
    "version": 1
  }
}